:0400000007EF00F016
:0A0008001B8216ED05F05FEF05F016
:100800000000000E066E04AE06D0036C041ED8B0C5
:10081000042A010E066E02AE06D0016C021ED8B08C
:10082000022A010E061A000E086E000E076E035013
:100830000410D8B41CD0010E056E04D0D890033635
:100840000436052A04AEFAD7D89007360836035086
:10085000015C04500258D8A005D00350015E04503A
:10086000025A0780D89004320332052EEDD7065085
:10087000D8B404D0076C081ED8B0082A07C001F00D
:1008800008C002F01200000E066E02AE06D0016C27
:10089000021ED8B0022A010E066E04AE04D0036C0C
:1008A000041ED8B0042A03500410D8B418D0010E86
:1008B000056E04D0D89003360436052A04AEFAD764
:1008C0000350015C04500258D8A004D00350015ECC
:1008D0000450025AD89004320332052EF1D7065044
:1008E000D8B404D0016C021ED8B0022A01C001F0B5
:1008F00002C002F0120006C009F007C00AF0060E9E
:10090000D89009360A36E82EFBD704500926055040
:100910000A223F0E0924026E000E0A20036E6AECC2
:1009200005F08D80000E0C6E000E0B6E0AD0085084
:100930000B24D96EDA6ADF508C6E3EEC05F00B4A60
:100940000C2A08500B24D96EDA6ADF50D8B4120092
:10095000EED709C00CF00AC00DF0000E0F6E030EAA
:100960000E6E0B500E24D96EDA6A0CC001F00DC069
:1009700002F0000E046E0A0E036E43EC04F0015008
:10098000300FDF6E0CC001F00DC002F0000E046EDF
:100990000A0E036E01EC04F001C00CF002C00DF071
:1009A0000E06D8A00F060FBE1200DBD72BEC05F009
:1009B00011C015F012C016F015C009F016C00AF0EB
:1009C000170E0B6EA9EC04F0000E056E010E046EFE
:1009D000000E076E020E066E170E086E7BEC04F01A
:1009E000070E106E7D0EE82EFED7102EFCD70000ED
:1009F000DFD7000E956EF80E9616000E8C6EF80E70
:100A00008D16410E046EEE0EE82EFED7042EFCD796
:100A100000D0000E036E380E026E6AEC05F0000E78
:100A2000036E0C0E026E6AEC05F012000600F2B4C2
:100A3000F2AA0FD0CF0ED76E2D0ED66EF29AF29488
:100A4000010E1126000E122213221422010E891A01
:100A5000F28A1B9211000F0EC112000E926E000E50
:100A6000896EF9EC04F0410E056EEE0EE82EFED70D
:100A7000052EFCD700D051EC05F012008D94210E0C
:100A8000016E760EE82EFED7012EFCD700D08D84A5
:100A9000210E016E760EE82EFED7012EFCD700D077
:100AA0001200D58ED59CD59AD586D550CF0ED76E4F
:100AB0002D0ED66EF28EF28CF28AF294120000EEB7
:100AC00011F00A0EEE6AE806FDE11B901B92000190
:100AD000D6EF04F08D9002C08CFF3EEC05F01200C2
:020000040030CA
:04000000240C1F1E8F
:00000001FF
