:0400000007EF00F016
:0A0008001B8295ED05F048EF05F0AE
:0508000000487A000031
:1008060006C00AF007C00BF0060ED8900A360B3663
:10081600E82EFBD704500A2605500B223F0E0A2469
:10082600026E000E0B20036EA2EC05F08D80000E0A
:100836000D6E000E0C6E1BD00C5008240A6E0D5067
:1008460009200B6E0AC0F6FF0BC0F7FFF86A070E09
:10085600F76403D00800F55005D0F6CFD9FFF7CFDF
:10086600DAFFDF508C6E74EC05F00C4A0D2A0C5042
:1008760008240A6E0D5009200B6E0AC0F6FF0BC045
:10088600F7FFF86A070EF76403D00800F55005D0A5
:10089600F6CFD9FFF7CFDAFFDF500009D8B4120040
:1008A600CBD7000E066E04AE06D0036C041ED8B07D
:1008B600042A010E066E02AE06D0016C021ED8B0E6
:1008C600022A010E061A000E086E000E076E03506D
:1008D6000410D8B41CD0010E056E04D0D89003368F
:1008E6000436052A04AEFAD7D890073608360350E0
:1008F600015C04500258D8A005D00350015E045094
:10090600025A0780D89004320332052EEDD70650DE
:10091600D8B404D0076C081ED8B0082A07C001F066
:1009260008C002F01200000E066E02AE06D0016C80
:10093600021ED8B0022A010E066E04AE04D0036C65
:10094600041ED8B0042A03500410D8B418D0010EDF
:10095600056E04D0D89003360436052A04AEFAD7BD
:100966000350015C04500258D8A004D00350015E25
:100976000450025AD89004320332052EF1D706509D
:10098600D8B404D0016C021ED8B0022A01C001F00E
:1009960002C002F0120061EC05F0000E0A6EC80EED
:1009A600096E110E0B6EFEEC04F0000E056E010EC4
:1009B600046E000E076E020E066E110E086E096AB0
:1009C60003EC04F0000E056E050E046E000E076EB5
:1009D600020E066E010E086E0850D8A4080E096EA7
:1009E60003EC04F0410E106EEE0EE82EFED7102E2C
:1009F600FCD700D0D2D709C00CF00AC00DF0000E0B
:100A06000F6E030E0E6E0B500E24D96EDA6A0CC0F2
:100A160001F00DC002F0000E046E0A0E036E96EC95
:100A260004F00150300FDF6E0CC001F00DC002F073
:100A3600000E046E0A0E036E54EC04F001C00CF0B6
:100A460002C00DF00E06D8A00F060FBE1200DBD7AF
:100A5600000E956EF80E9616000E8C6EF80E8D161C
:100A6600410E046EEE0EE82EFED7042EFCD700D003
:100A7600000E036E380E026EA2EC05F0000E036E39
:100A86000C0E026EA2EC05F01200500EF66E0B0E66
:100A9600F76E000EF86E0900F5CF19F00900F5CFD4
:100AA6001AF000EE11F0080EEE6AE806FDE11B9062
:100AB6001B92000EF86E0001CEEF04F00F0EC1126D
:100AC600000E926E000E896E2BEC05F0410E056E3F
:100AD600EE0EE82EFED7052EFCD700D087EC05F0EB
:100AE60012008D94210E016E760EE82EFED7012E91
:100AF600FCD700D08D84210E016E760EE82EFED72F
:100B0600012EFCD700D01200D58ED59CD59AD5865D
:100B1600D550CF0ED76E2D0ED66EF28EF28CF28A8F
:100B2600F29412000600F2B4F2AA07D0CF0ED76EE6
:100B36002D0ED66EF294010E891A1B9211008D901D
:0C0B460002C08CFF74EC05F01200C80027
:020000040030CA
:04000000240C1F1E8F
:00000001FF
