:0400000007EF00F016
:0A0008001882EEED05F0E1EF05F0BF
:1008000000456D657267656E636961202020202058
:1008100020202020202020202020202020202020D8
:10082000004D616E7574656E63616F20202020201D
:1008300020202020202020202020202020202020B8
:100840000050726F6E746F20202020202020202006
:0F085000202020202020202020202020200000F9
:100860000F0EC1129380FDEC05F0B1EC05F0410EC6
:10087000106EEE0EE82EFED7102EFCD700D012C060
:1008800009F013C00AF0140E0B6E84EC05F0000E94
:10089000056E010E046E000E076E010E066E140E3C
:1008A000086E096AB9EC04F0F2B80CD0C30E106EF1
:1008B000CD0EE82EFED7102EFCD7000081B002D05E
:1008C000F292F288410E106EEE0EE82EFED7102E38
:1008D000FCD700D038D0000E056E010E046E000E5D
:1008E000076E020E066E410E086E0850D8A4080E60
:1008F000096EB9EC04F0C3D7000E056E010E046E4C
:10090000000E076E020E066E010E086E0850D8A487
:10091000080E096EB9EC04F0B2D7000E056E010E98
:10092000046E000E076E020E066E210E086E085051
:10093000D8A4080E096EB9EC04F0A1D7000E136E0E
:10094000000E126E9CD712C010F013C011F011509F
:10095000000AD8A494D71050000AD8B4BCD7010A12
:10096000D8B4CAD7030AD8B4D8D7010AD8B4E6D7BE
:1009700086D706C00AF007C00BF0060ED8900A36DC
:100980000B36E82EFBD704500A2605500B223F0EEB
:100990000A24026E000E0B20036EF7EC05F08D802A
:1009A000000E0D6E000E0C6E1BD00C5008240A6E4B
:1009B0000D5009200B6E0AC0F6FF0BC0F7FFF86A56
:1009C000070EF76403D00800F55005D0F6CFD9FF25
:1009D000F7CFDAFFDF508C6ECEEC05F00C4A0D2A13
:1009E0000C5008240A6E0D5009200B6E0AC0F6FF49
:1009F0000BC0F7FFF86A070EF76403D00800F55044
:100A000005D0F6CFD9FFF7CFDAFFDF500009D8B411
:100A10001200CBD7000E066E04AE06D0036C041E87
:100A2000D8B0042A010E066E02AE06D0016C021E7A
:100A3000D8B0022A010E061A000E086E000E076ECC
:100A400003500410D8B41CD0010E056E04D0D89009
:100A500003360436052A04AEFAD7D890073608368E
:100A60000350015C04500258D8A005D00350015E29
:100A70000450025A0780D89004320332052EEDD775
:100A80000650D8B404D0076C081ED8B0082A07C096
:100A900001F008C002F01200000E066E02AE06D091
:100AA000016C021ED8B0022A010E066E04AE04D0FC
:100AB000036C041ED8B0042A03500410D8B418D014
:100AC000010E056E04D0D89003360436052A04AE14
:100AD000FAD70350015C04500258D8A004D0035048
:100AE000015E0450025AD89004320332052EF1D729
:100AF0000650D8B404D0016C021ED8B0022A01C03E
:100B000001F002C002F0120009C00CF00AC00DF0A2
:100B1000000E0F6E030E0E6E0B500E24D96EDA6AA5
:100B20000CC001F00DC002F0000E046E0A0E036E40
:100B30004CEC05F00150300FDF6E0CC001F00DC021
:100B400002F0000E046E0A0E036E0AEC05F001C0FE
:100B50000CF002C00DF00E06D8A00F060FBE12005A
:100B6000DBD7000E956EF80E9616000E8C6EF80E02
:100B70008D16410E046EEE0EE82EFED7042EFCD725
:100B800000D0000E036E380E026EF7EC05F0000E7A
:100B9000036E0C0E026EF7EC05F012008D94210E20
:100BA000016E760EE82EFED7012EFCD700D08D8484
:100BB000210E016E760EE82EFED7012EFCD700D056
:100BC0001200176A166A156A146A136A126A189074
:100BD0001892000EF86E000130EF04F00600F2A249
:100BE00004D0F292F298124A132A189211008D90B2
:100BF00002C08CFFCEEC05F01200F28EF288F29269
:040C0000F18C120061
:020000040030CA
:04000000240C1F1E8F
:00000001FF
