:04000000B9EF05F05F
:10080000006D79206C6962203B2900003AC03EF0FF
:100810003BC03FF0060ED8903E363F36E82EFBD761
:1008200038503E2639503F223F0E3E24366E000E91
:100830003F20376E01EC06F08D80000E416E000EF9
:10084000406E1BD040503C243E6E41503D203F6ED8
:100850003EC0F6FF3FC0F7FFF86A070EF76403D00B
:100860000800F55005D0F6CFD9FFF7CFDAFFDF50FB
:100870008C6EEEEC05F0404A412A40503C243E6E1E
:1008800041503D203F6E3EC0F6FF3FC0F7FFF86A83
:10089000070EF76403D00800F55005D0F6CFD9FF56
:1008A000F7CFDAFFDF500009D8B41200CBD70E0E15
:1008B000C16E9CEC05F007EC06F0410E446EEE0EA6
:1008C000E82EFED7442EFCD700D0000E396E010E64
:1008D000386E000E3B6E010E3A6E010E3C6E3C50BF
:1008E000D8A4080E3D6E06EC04F0000E366E000E25
:1008F000356EA6EC04F035C046F036C047F046C071
:100900003DF047C03EF0480E3F6E6FEC05F0000E24
:10091000396E010E386E000E3B6E010E3A6E480EB7
:100920003C6E3D6A06EC04F0030E456E8A0E446E82
:10093000560EE82EFED7442EFCD7452EFAD7000ED1
:10094000376E010E366E01EC06F0CFD73550040D30
:10095000F350010FD96EDA6ADF50376E37463746EB
:10096000C2503718FB0B3718C26E3550040DF350C8
:10097000020FD96EDA6ADF50376E37463746374690
:10098000C2503718F70B3718C26E3550040DF350AC
:10099000030FD96EDA6ADF50376E373AC250371814
:1009A000EF0B3718C26E3550040DF350040FD96E9B
:1009B000DA6ADF50376E373A3746C2503718DF0BE6
:1009C0003718C26EC282C2A2FED7C350C4CF37F05E
:1009D000386A37C038F0376A3710396E38503A6E97
:1009E00039C035F03AC036F01200000E3A6E38AE1B
:1009F00006D0376C381ED8B0382A010E3A6E36AEA3
:100A000006D0356C361ED8B0362A010E3A1A000EC2
:100A10003C6E000E3B6E37503810D8B41CD0010E1F
:100A2000396E04D0D89037363836392A38AEFAD7EE
:100A3000D8903B363C363750355C38503658D8A0C5
:100A400005D03750355E3850365A3B80D890383212
:100A50003732392EEDD73A50D8B404D03B6C3C1E17
:100A6000D8B03C2A3BC035F03CC036F01200000E36
:100A70003A6E36AE06D0356C361ED8B0362A010E28
:100A80003A6E38AE04D0376C381ED8B0382A37509A
:100A90003810D8B418D0010E396E04D0D89037363B
:100AA0003836392A38AEFAD73750355C3850365890
:100AB000D8A004D03750355E3850365AD8903832E6
:100AC0003732392EF1D73A50D8B404D0356C361EAF
:100AD000D8B0362A35C035F036C036F012003DC0E9
:100AE00040F03EC041F0000E436E030E426E3F5098
:100AF0004224D96EDA6A40C035F041C036F0000EAB
:100B0000386E0A0E376E37EC05F03550300FDF6E59
:100B100040C035F041C036F0000E386E0A0E376E18
:100B2000F5EC04F035C040F036C041F04206D8A0E4
:100B3000430643BE1200DBD7000E956EF80E9616E4
:100B4000000E8C6EF80E8D16410E386EEE0EE82EED
:100B5000FED7382EFCD700D0000E376E380E366E1A
:100B600001EC06F0000E376E0C0E366E01EC06F04E
:100B70001200A80EF66E0B0EF76E000EF86E00EE69
:100B800001F010EE34F00900F5CFEEFFE550E15032
:100B9000FAE14B6A4A6A496A486A476A466A000E3D
:100BA000F86E000157EF04F00000000000000001A3
:100BB000000001000000010100010000000100012F
:100BC000000101000001010101000000010000011D
:100BD0000100010001000101010100008D94210EBE
:100BE000356E760EE82EFED7352EFCD700D08D84DC
:100BF000210E356E760EE82EFED7352EFCD700D0AE
:100C000012008D9036C08CFFEEEC05F01200C28011
:080C1000C198C19AC08E1200C8
:020000040030CA
:04000000240C1F1E8F
:00000001FF
