:04000000A0EF05F078
:1008000000003550040DF350010FD96EDA6ADF5045
:10081000376E37463746C2503718FB0B3718C26E53
:100820003550040DF350020FD96EDA6ADF50376E7F
:10083000374637463746C2503718F70B3718C26E5F
:100840003550040DF350030FD96EDA6ADF50376E5E
:10085000373AC2503718EF0B3718C26E3550040DB7
:10086000F350040FD96EDA6ADF50376E373A3746E5
:10087000C2503718DF0B3718C26EC282C2A2FED731
:10088000C350C4CF37F0386A37C038F0376A3710F2
:10089000396E38503A6E39C035F03AC036F0120031
:1008A0000E0EC16E69EC05F0410E446EEE0EE82EA0
:1008B000FED7442EFCD700D0000E376E010E366EE8
:1008C000CCEC05F0D2EC05F0000E366E000E356E65
:1008D00001EC04F035C04CF036C04DF04CC03DF09A
:1008E0004DC03EF04E0E3F6E3CEC05F0000E396EF2
:1008F000010E386E000E3B6E010E3A6E4E0E3C6ECF
:100900000EEC05F0030E456E8A0E446E560EE82E70
:10091000FED7442EFCD7452EFAD7000E376E010EB7
:10092000366ECCEC05F0D0D7000E3A6E38AE06D05D
:10093000376C381ED8B0382A010E3A6E36AE06D063
:10094000356C361ED8B0362A010E3A1A000E3C6EAF
:10095000000E3B6E37503810D8B41CD0010E396EE3
:1009600004D0D89037363836392A38AEFAD7D890EE
:100970003B363C363750355C38503658D8A005D019
:100980003750355E3850365A3B80D890383237323F
:10099000392EEDD73A50D8B404D03B6C3C1ED8B0B9
:1009A0003C2A3BC035F03CC036F01200000E3A6ED7
:1009B00036AE06D0356C361ED8B0362A010E3A6EE9
:1009C00038AE04D0376C381ED8B0382A37503810BB
:1009D000D8B418D0010E396E04D0D89037363836D6
:1009E000392A38AEFAD73750355C38503658D8A047
:1009F00004D03750355E3850365AD89038323732B6
:100A0000392EF1D73A50D8B404D0356C361ED8B050
:100A1000362A35C035F036C036F012003AC03DF007
:100A20003BC03EF0060ED8903D363E36E82EFBD752
:100A300038503D2639503E223F0E3D24366E000E82
:100A40003E20376ECCEC05F08D80000E406E000E1F
:100A50003F6E0AD03C503F24D96EDA6ADF508C6E6C
:100A6000B9EC05F03F4A402A3C503F24D96EDA6A7F
:100A7000DF50D8B41200EED73DC040F03EC041F088
:100A8000000E436E030E426E3F504224D96EDA6A66
:100A900040C035F041C036F0000E386E0A0E376E99
:100AA000D6EC04F03550300FDF6E40C035F041C059
:100AB00036F0000E386E0A0E376E94EC04F035C036
:100AC00040F036C041F04206D8A0430643BE1200B3
:100AD000DBD7000E956EF80E9616000E8C6EF80E93
:100AE0008D16410E386EEE0EE82EFED7382EFCD74E
:100AF00000D0000E376E380E366ECCEC05F0000ECE
:100B0000376E0C0E366ECCEC05F0120000000000C3
:100B100000000001000001000000010100010000D0
:100B200000010001000101000001010101000000BD
:100B300001000001010001000100010101010000AC
:100B40000C0EF66E0B0EF76E000EF86E00EE01F056
:100B500010EE34F00900F5CFEEFFE550E150FAE178
:100B600000EE46F00C0EEE6AE806FDE1000150EFE3
:100B700004F08D94210E356E760EE82EFED7352EBC
:100B8000FCD700D08D84210E356E760EE82EFED770
:100B9000352EFCD700D012008D9036C08CFFB9ECFA
:0E0BA00005F01200C280C198C19AC08E1200EA
:020000040030CA
:04000000240C1F1E8F
:00000001FF
