:0400000083EF04F096
:10080000006D79206C6962203B29000006C009F068
:1008100007C00AF0060ED89009360A36E82EFBD734
:100820000450092605500A223F0E0924026E000ECC
:100830000A20036E8AEC04F08D80000E0C6E000E10
:100840000B6E0CD008500B24096E09C0F6FF08008F
:10085000F5CF8CFF70EC04F00B4A0C2A08500B24E7
:10086000096E09C0F6FF0800F5500009D8B412005F
:10087000E9D7000E956EF80E9616000E8C6EF80EE7
:100880008D16410E046EEE0EE82EFED7042EFCD718
:1008900000D0000E036E380E026E8AEC04F0000EDB
:1008A000036E0C0E026E8AEC04F012000E0EC16E86
:1008B00039EC04F0410E0D6EEE0EE82EFED70D2E33
:1008C000FCD700D0000E056E010E046E000E076E00
:1008D000010E066E010E086E06EC04F000EF00F04B
:1008E0008D94210E016E760EE82EFED7012EFCD7D8
:1008F00000D08D84210E016E760EE82EFED7012EDB
:10090000FCD700D01200000EF86E080EF76E000142
:1009100056EF04F08D9002C08CFF70EC04F01200D2
:020000040030CA
:04000000240C1F1E8F
:00000001FF
