:040000004AEF04F0CF
:1008000000002BEC04F0410E076EEE0EE82EFED732
:10081000072EFCD700D0014A022A900E015C010E7F
:100820000258D8A004D0010E026E380E016E01C02D
:1008300007F002C008F0D89008320732D89008328A
:1008400007320750BE6E01C007F0030E07160738C7
:10085000F00BBD12D8D70F0EC16E070ECA129494BA
:100860009B0ECB6E01C005F002C006F0D890063298
:100870000532D890063205320550BE6E170EBD16F1
:1008800001C005F0030E05160538F00BBD120F0E62
:10089000BD121200BA0EF66E080EF76E000EF86E5C
:1008A00000EE01F010EE04F00900F5CFEEFFE55088
:0E08B000E150FAE1000101EF04F038019B0075
:020000040030CA
:04000000240C1F1E8F
:00000001FF
