:0400000007EF00F016
:0A0008003E82E0ED06F0CDEF06F0B9
:0508000000487A000031
:100806008EEC06F09EA4FED7BECF35F0BFCF36F0F5
:100816009E949EA4FED7BECF33F0BFCF34F03550A2
:10082600335C3C6E365034583D6E3CC009F03DC0DA
:100836000AF0BBEC06F009C00FF00AC010F00BC0BE
:1008460011F0970E0C6E980E0D6E4A0E0E6E76EC2B
:1008560004F00CC01BF00DC01CF00EC01DF0E9EC3E
:1008660004F01BC031F01CC032F031C02FF032C092
:1008760030F02FC008F030C009F0370E0A6EFAECDF
:1008860005F0000E056E010E046E000E076E010ED9
:10089600066E370E086E096AA9EC05F0000E056EA5
:1008A600080E046E000E076E010E066E010E086E2F
:1008B6000850D8A4080E096EA9EC05F0030E2B6E9D
:1008C6008A0E2A6E560EE82EFED72A2EFCD72B2E1F
:1008D600FAD7000ECF6E000ECE6E000EBF6E000E63
:1008E600BE6E9E948FD70EC012F0136A146A0D3432
:1008F600123601E313801250196E1950D8A407D08E
:10090600000E0C6E000E0D6E000E0E6E120011C063
:1009160012F0136A146A1034123601E3138012506F
:100926001A6E1A50D8A407D0000E0C6E000E0D6E6B
:10093600000E0E6E1200000E166E000E176E000EE2
:10094600186E1A50890F195E0EC01AF011501A1A35
:10095600800E1A160D8EFF0E0C16FF0E0D16000ECB
:100966000E16108EFF0E0F16FF0E1016000E111625
:10097600180E156ED8901636173618360F500C5CB2
:1009860010500D5811500E58D8A007D00F500C5EBD
:1009960010500D5A11500E5A1680D8900C360D363E
:1009A6000E36152EE7D716C001F017C002F018C094
:1009B60003F019C004F01AC005F052EC05F001C0AE
:1009C6000CF002C00DF003C00EF012001DC01FF0A7
:1009D600206A216A1C341F3601E320801F50296ECD
:1009E6002950D8A409D0000E1B6E000E1C6E000EF6
:1009F6001D6E000E1E6E1200170E1F6E1BC020F01D
:100A06001CC021F01DC022F01F28236E04D0D890F0
:100A1600223221322032232EFAD72050246E1C8E09
:100A2600FF0E1B16FF0E1C16000E1D161B50256E04
:100A36001C50266E1D50276E286A8E0E295E29AE22
:100A46000DD02950800A8F0FD8A0CDD7D890283244
:100A5600273226322532293EF9D70DD0170E2964C2
:100A660007D0C1D7D8902536263627362836290608
:100A76002950D8A4F7D72450D8B408D0281E271E4A
:100A8600261E256C000E26222722282225C01BF0B2
:100A960026C01CF027C01DF028C01EF0120004500E
:100AA600D8B405D0015002100310D8A40CD0000E03
:100AB600016E000E026E000E036E1200042AD8901C
:100AC600033202320132000E0114066E000E0214C9
:100AD600076EFE0E0314086E065007100810D8B4F1
:100AE6000CD0ECD7042A010E0126000E0222000EBD
:100AF6000322D890033202320132000E0114066E30
:100B0600000E0214076EFF0E0314086E065007103F
:100B16000810D8B406D0E6D70406D89001360236B7
:100B2600033602BE03D0020E0460F6D704A0029E6E
:100B3600D8900432045003120550D8A4038E01C085
:100B460001F002C002F003C003F0120006C00AF072
:100B560007C00BF0060ED8900A360B36E82EFBD7E8
:100B660004500A2605500B223F0E0A24026E000E80
:100B76000B20036EDAEC06F08D80000E0D6E000E73
:100B86000C6E1BD00C5008240A6E0D5009200B6EFB
:100B96000AC0F6FF0BC0F7FFF86A070EF76403D02A
:100BA6000800F55005D0F6CFD9FFF7CFDAFFDF50B2
:100BB6008C6EA8EC06F00C4A0D2A0C5008240A6E1E
:100BC6000D5009200B6E0AC0F6FF0BC0F7FFF86A3E
:100BD600070EF76403D00800F55005D0F6CFD9FF0D
:100BE600F7CFDAFFDF500009D8B41200CBD708C020
:100BF6000BF009C00CF0000E0E6E050E0D6E0A50BD
:100C06000D24D96EDA6A0BC001F00CC002F0000E9A
:100C1600046E0A0E036E50EC06F00150300FDF6EC4
:100C26000BC001F00CC002F0000E046E0A0E036E3B
:100C360027EC06F001C00BF002C00CF00D06D8A0A0
:100C46000E060EBE1200DBD7000E066E000E056EF7
:100C560003500410D8B41CD0010E076E04D0D890EF
:100C660003360436072A04AEFAD7D8900536063678
:100C76000350015C04500258D8A005D00350015E11
:100C86000450025A0580D89004320332072EEDD75D
:100C960005C001F006C002F0120003500410D8B4DB
:100CA60018D0010E056E04D0D89003360436052AF6
:100CB60004AEFAD70350015C04500258D8A004D001
:100CC6000350015E0450025AD89004320332052EB6
:100CD600F1D701C001F002C002F01200000E956EBD
:100CE600F80E9616000E8C6EF80E8D16410E046EDA
:100CF600EE0EE82EFED7042EFCD700D0000E036EB3
:100D0600380E026EDAEC06F0000E036E0C0E026E62
:100D1600DAEC06F012000F0EC26E948471EC06F047
:100D2600CD8ECD98CD9ACD96CD92CD80000ECF6E3C
:100D3600000ECE6E000EBF6E000EBE6E050EBD120C
:100D46009D849E94B19CB19612008D94210E016EE5
:100D5600760EE82EFED7012EFCD700D08D84210E0C
:100D6600016E760EE82EFED7012EFCD700D01200BB
:100D760009C001F00AC002F0036A8E0E046E000E6E
:100D8600056E52EC05F001C009F002C00AF003C07E
:100D96000BF0120000EE2CF0120EEE6AE806FDE1F2
:100DA6003E903E92000EF86E000103EF04F08D9027
:100DB60002C08CFFA8EC06F0120006003E9211005D
:020000040030CA
:04000000240C1F1E8F
:00000001FF
