:0400000062EF04F0B7
:100800000048656C6C6F00008D80000E096E000E54
:10081000086E0CD006500824076E07C0F6FF0800CB
:10082000F5CF8CFF3EEC04F0084A092A0650082454
:10083000076E07C0F6FF0800F5500009D8B4120093
:10084000E9D7000E956EF80E9616000E8C6EF80E17
:100850008D16410E046EEE0EE82EFED7042EFCD748
:1008600000D0000E036E380E026E69EC04F0000E2C
:10087000036E0C0E026E69EC04F012008D94210ED2
:10088000016E760EE82EFED7012EFCD700D08D84A7
:10089000210E016E760EE82EFED7012EFCD700D079
:1008A00012000F0EC16E21EC04F0000E036E010E5B
:1008B000026E000E056E010E046E010E066E04EC53
:1008C00004F0FFD7000EF86E080EF76E000151EF2E
:0E08D00004F08D9002C08CFF3EEC04F012008C
:020000040030CA
:04000000240C1F1E8F
:00000001FF
