:0400000050EF04F0C9
:100800000000000E956EF80E9616000E8C6EF80E17
:100810008D16410E046EEE0EE82EFED7042EFCD788
:1008200000D0000E036E380E026E7DEC04F0000E58
:10083000036E0C0E026E7DEC04F012000F0EC16E02
:1008400001EC04F020EE17F010EE09F00D0EDBCFF6
:10085000E3FFE806FCE2000E036E010E026E000EDE
:10086000056E010E046E090E066E38EC04F0FFD71B
:100870008D80000E086E000E076E0AD00650072409
:10088000D96EDA6ADF508C6E63EC04F0074A082AEE
:1008900006500724D96EDA6ADF50D8B41200EED7BA
:1008A000EC0EF66E080EF76E000EF86E00EE17F006
:1008B00010EE0EF00900F5CFEEFFE550E150FAE141
:1008C00000011EEF04F08D94210E016E760EE82ECD
:1008D000FED7012EFCD700D08D84210E016E760E3E
:1008E000E82EFED7012EFCD700D012004D79206CE7
:1008F000696272617279203B29008D9002C08CFF81
:0609000063EC04F012009C
:020000040030CA
:04000000240C1F1E8F
:00000001FF
