:0400000066EF04F0B3
:10080000000006C009F007C00AF0060ED8900936AD
:100810000A36E82EFBD70450092605500A223F0E5F
:100820000924026E000E0A20036E93EC04F08D8002
:10083000000E0C6E000E0B6E0AD008500B24D96E01
:10084000DA6ADF508C6E79EC04F00B4A0C2A0850FF
:100850000B24D96EDA6ADF50D8B41200EED7000E3E
:10086000956EF80E9616000E8C6EF80E8D16410ED3
:10087000046EEE0EE82EFED7042EFCD700D0000E3C
:10088000036E380E026E93EC04F0000E036E0C0E35
:10089000026E93EC04F012000F0EC16E2FEC04F008
:1008A00020EE1BF010EE0DF00D0EDBCFE3FFE8069F
:1008B000FCE2000E056E040E046E000E076E010EC3
:1008C000066E0D0E086E01EC04F0FFD7180EF66EE2
:1008D000090EF76E000EF86E00EE1BF010EE0EF033
:1008E0000900F5CFEEFFE550E150FAE100014CEFD1
:1008F00004F08D94210E016E760EE82EFED7012EA7
:10090000FCD700D08D84210E016E760EE82EFED726
:10091000012EFCD700D012004D79206C6962726103
:100920007279203B29008D9002C08CFF79EC04F095
:020930001200B3
:020000040030CA
:04000000240C1F1E8F
:00000001FF
