:0400000086EF0AF08D
:1008000000467265712E3A200044433A20004B485E
:050810007A0025000044
:100816005BEC0AF0000E026E000E016EF6EC08F0BC
:1008260001C096F002C097F00001000E97BFFF0EC0
:10083600986F996F000E286EC80E296E420E2A6EAA
:10084600C00E196E7F0E1A6E440E1B6E96C00DF00A
:1008560097C00EF098C00FF099C010F002EC0AF0A5
:100866000DC016F00EC017F00FC018F072EC07F0AE
:1008760016C025F017C026F018C027F0F8EC06F0D1
:1008860025C040F026C041F027C042F0E5EC07F055
:1008960040C096F041C097F042C098F043C099F02E
:1008A60096C00EF097C00FF098C010F099C011F0E6
:1008B6009A0E126E000E146E020E136E45EC09F0BF
:1008C600000E026E010E016EF6EC08F001C0A3F0F8
:1008D60002C0A4F00001000EA4BFFF0EA56FA66F14
:1008E600000E196E7A0E1A6E440E1B6E000E376ECF
:1008F600FA0E386E440E396EC80E286EBF0E296E7B
:10090600420E2A6EA3C00DF0A4C00EF0A5C00FF0D3
:10091600A6C010F002EC0AF00DC025F00EC026F0BD
:100926000FC027F0F8EC06F025C034F026C035F0ED
:1009360027C036F024EC06F034C016F035C017F0A8
:1009460036C018F072EC07F016C040F017C041F040
:1009560018C042F0E5EC07F040C0A3F041C0A4F097
:1009660042C0A5F043C0A6F0A3C00EF0A4C00FF08D
:10097600A5C010F0A6C011F09F0E126E000E146EE8
:10098600020E136E45EC09F0000E056E010E046EA4
:10099600000E076E010E066E010E086E0850D8A4F2
:1009A600080E096EA5EC08F0000E056E080E046E22
:1009B600000E076E010E066E9F0E086E096AA5EC04
:1009C60008F0000E056E010E046E000E076E0F0E87
:1009D600066E0E0E086E0850D8A4080E096EA5EC19
:1009E60008F0000E056E010E046E000E076E020E74
:1009F600066E090E086E0850D8A4080E096EA5ECFE
:100A060008F0000E056E080E046E000E076E020E4C
:100A1600066E120E086E0850D8A4080E096EA5ECD4
:100A260008F0000E056E050E046E000E076E020E2F
:100A3600066E9A0E086E096AA5EC08F02FEC05F012
:100A4600020E5C6E450E5B6EAA0EE82EFED75B2E7E
:100A5600FCD75C2EFAD7DED696C00DF097C00EF006
:100A660098C00FF099C010F002EC0AF00DC028F003
:100A76000EC029F00FC02AF0A3C001F0A4C002F0F6
:100A8600A5C003F0A6C004F0E80E056E030E066EC0
:100A9600000E076E000E086E30EC0AF001C00DF075
:100AA60002C00EF003C00FF004C010F002EC0AF012
:100AB6000DC019F00EC01AF00FC01BF0000E166E16
:100AC600800E176E3F0E186E72EC07F016C025F0FA
:100AD60017C026F018C027F0F8EC06F025C051F034
:100AE60026C052F027C053F0970E286E980E296E36
:100AF6004B0E2A6E000E196EC80E1A6E420E1B6E33
:100B060051C016F052C017F053C018F072EC07F03F
:100B160016C025F017C026F018C027F0F8EC06F02E
:100B260025C054F026C055F027C056F0000E196EA9
:100B3600800E1A6E410E1B6E54C016F055C017F08B
:100B460056C018F072EC07F016C040F017C041F01E
:100B560018C042F0E5EC07F040C057F041C058F02D
:100B6600000E376E800E386EBF0E396EA3C001F0D0
:100B7600A4C002F0A5C003F0A6C004F0800E056E66
:100B86003E0E066E000E076E000E086E30EC0AF082
:100B960001C00DF002C00EF003C00FF004C010F04B
:100BA60002EC0AF00DC019F00EC01AF00FC01BF0CF
:100BB600970E166E980E176E4A0E186E72EC07F0A8
:100BC60016C034F017C035F018C036F024EC06F025
:100BD60034C040F035C041F036C042F0E5EC07F0D5
:100BE60040C059F041C05AF05D50571804E15E50BC
:100BF6005818D8B417D057C05DF058C05EF05DC025
:100C06004FF0030E4F164F38F00BBD125DC04FF07C
:100C16005EC050F0D89050324F32D89050324F329A
:100C26004F50BE6ECB504F6E506A59504F1804E16C
:100C36005A505018D8B41200CA9459C0CBFFCA846F
:100C4600120036C03AF03B6A3C6A35343A3601E364
:100C56003B803A503F6E39C03AF03B6A3C6A3834C2
:100C66003A3601E33B803A503E6E3F50D8B40AD044
:100C76003E503F5CD8B00DD03F503E5C3A6E180EE9
:100C86003A6407D037C034F038C035F039C036F092
:100C960012003E50D8B40AD03F503E5CD8B00DD0BA
:100CA6003E503F5C3A6E180E3A6407D034C034F0BA
:100CB60035C035F036C036F01200060E3D6E36BE33
:100CC6003D8E39BE3D8C358EFF0E3416FF0E351621
:100CD600000E3616388EFF0E3716FF0E3816000E2B
:100CE60039163E503F5CD8B01BD0D89037363836D0
:100CF60039363E063F503E18D8B40DD03D063DC0AD
:100D06003AF0070E3A16D8B406D0EFD7D890363256
:100D1600353234323F2A3E503F18D8B41FD0F6D76A
:100D26003F503E5CD8B01AD0D89034363536363679
:100D36003F063F503E18D8B40DD03D063DC03AF0B0
:100D4600070E3A16D8B406D0EFD7D89039323832D3
:100D560037323E2A3E503F18D8A4F7D73DAE0CD0C6
:100D6600FF0E341AFF0E351AFF0E361A010E342600
:100D7600000E3522000E36223DAC0CD0FF0E371A7F
:100D8600FF0E381AFF0E391A010E3726000E3822CA
:100D9600000E3922000E3D6E34503726355038226B
:100DA6003650392239AE0ED0FF0E371AFF0E381ADA
:100DB600FF0E391A010E3726000E3822000E392290
:100DC600010E3D6E37C001F038C002F039C003F0A5
:100DD6003FC004F03DC005F04EEC08F001C034F011
:100DE60002C035F003C036F0120027C02BF02C6A83
:100DF6002D6A26342B3601E32C802B502E6E2E5076
:100E0600D8A407D0000E256E000E266E000E276EA3
:100E160012002AC02BF02C6A2D6A29342B3601E3E6
:100E26002C802B50336E3350D8A407D0000E256E7D
:100E3600000E266E000E276E120033507B0F2E26F4
:100E460027C033F02A50331A800E3316268E298E89
:100E5600FF0E2816FF0E2916000E2A16000E2F6EFC
:100E6600000E306E000E316E070E326E25A006D0D3
:100E760028502F26295030222A503122D890273246
:100E860026322532D890283629362A36322EEED703
:100E9600090E326E25A006D028502F262950302262
:100EA6002A503122D890273226322532D890313234
:100EB60030322F32322EEED72FC001F030C002F082
:100EC60031C003F02EC004F033C005F04EEC08F03C
:100ED60001C025F002C026F003C027F0120018C09A
:100EE6001CF01D6A1E6A17341C3601E31D801C5057
:100EF600236E2350D8A407D0000E166E000E176E70
:100F0600000E186E12001BC01CF01D6A1E6A1A34F1
:100F16001C3601E31D801C50246E2450D8A407D033
:100F2600000E166E000E176E000E186E1200000EE2
:100F3600206E000E216E000E226E2450890F235E55
:100F460018C024F01B50241A800E2416178EFF0E8C
:100F56001616FF0E1716000E18161A8EFF0E191605
:100F6600FF0E1A16000E1B16180E1F6ED89020368E
:100F7600213622361950165C1A5017581B5018582D
:100F8600D8A007D01950165E1A50175A1B50185A77
:100F96002080D8901636173618361F2EE7D720C071
:100FA60001F021C002F022C003F023C004F024C0E7
:100FB60005F04EEC08F001C016F002C017F003C0B1
:100FC60018F0120042C044F0456A466A413444367D
:100FD60001E3458044504E6E4E50D8A409D0000E11
:100FE600406E000E416E000E426E000E436E120001
:100FF600170E446E40C045F041C046F042C047F06F
:101006004428486E04D0D890473246324532482E9E
:10101600FAD74550496E418EFF0E4016FF0E411617
:10102600000E421640504A6E41504B6E42504C6E76
:101036004D6A8E0E4E5E4EAE0DD04E50800A8F0F0C
:10104600D8A0CDD7D8904D324C324B324A324E3E94
:10105600F9D70DD0170E4E6407D0C1D7D8904A36AF
:101066004B364C364D364E064E50D8A4F7D749501F
:10107600D8B408D04D1E4C1E4B1E4A6C000E4B2297
:101086004C224D224AC040F04BC041F04CC042F0C9
:101096004DC043F012000450D8B405D001500210E0
:1010A6000310D8A40CD0000E016E000E026E000EC6
:1010B600036E1200042AD890033202320132000E67
:1010C6000114066E000E0214076EFE0E0314086E5F
:1010D600065007100810D8B40CD0ECD7042A010E1D
:1010E6000126000E0222000E0322D890033202329D
:1010F6000132000E0114066E000E0214076EFF0E7A
:101106000314086E065007100810D8B406D0E6D7A8
:101116000406D89001360236033602BE03D0020E0C
:101126000460F6D704A0029ED8900432045003123D
:101136000550D8A4038E01C001F002C002F003C01E
:1011460003F0120006C00AF007C00BF0060ED89096
:101156000A360B36E82EFBD704500A2605500B221A
:101166003F0E0A24026E000E0B20036EF8EC0AF006
:101176008D80000E0D6E000E0C6E1BD00C500824D8
:101186000A6E0D5009200B6E0AC0F6FF0BC0F7FF62
:10119600F86A070EF76403D00800F55005D0F6CFBD
:1011A600D9FFF7CFDAFFDF508C6EE5EC0AF00C4A78
:1011B6000D2A0C5008240A6E0D5009200B6E0AC029
:1011C600F6FF0BC0F7FFF86A070EF76403D00800B6
:1011D600F55005D0F6CFD9FFF7CFDAFFDF5000097B
:1011E600D8B41200CBD70150040DF350600FD96E5E
:1011F600DA6ADF50036E033A0346C2500318DF0B68
:101206000318C26E0150040DF350610FD96EDA6AED
:10121600DF50036E033AC2500318EF0B0318C26E79
:101226000150040DF350620FD96EDA6ADF50036E77
:10123600034603460346C2500318F70B0318C26E53
:101246000150040DF350630FD96EDA6ADF50036E56
:1012560003460346C2500318FB0B0318C26EC28234
:10126600C2A2FED7C350C4CF03F0046A03C004F081
:10127600036A0310056E0450066E05C001F006C031
:1012860002F0120013C019F014C01AF00EC015F0C7
:101296000FC016F010C017F011C018F013C019F0E7
:1012A60014C01AF01ABE120012501924D96EDA6A46
:1012B60015C001F016C002F017C003F018C004F004
:1012C6000A0E056E000E066E000E076E000E086E04
:1012D600CFEC09F00150300FDF6E15C001F016C0DB
:1012E60002F017C003F018C004F00A0E056E000ED7
:1012F600066E000E076E000E086E8EEC09F001C039
:1013060015F002C016F003C017F004C018F0190655
:10131600D8A01A06C7D7000E096E000E0A6E000E78
:101326000B6E000E0C6E0550061007100810D8B490
:101336002AD0010E0D6E06D0D89005360636073631
:1013460008360D2A08AEF8D7D89009360A360B3675
:101356000C360550015C06500258075003580850D9
:101366000458D8A009D00550015E0650025A07500D
:10137600035A0850045A0980D890083207320632B8
:1013860005320D2EE1D709C001F00AC002F00BC0EC
:1013960003F00CC004F012000550061007100810E8
:1013A600D8B424D0010E096E06D0D890053606367C
:1013B60007360836092A08AEF8D70550015C0650EC
:1013C60002580750035808500458D8A008D00550B2
:1013D600015E0650025A0750035A0850045AD89024
:1013E6000832073206320532092EE7D701C001F06E
:1013F60002C002F003C003F004C004F012008E0E17
:10140600156E06D0D89010320F320E320D32152AD4
:10141600000E0D14116E000E0E14126E000E0F1437
:10142600136EFF0E1014146E1150121013101410B8
:10143600D8A4E8D70DC001F00EC002F00FC003F02B
:1014460015C004F0000E056E4EEC08F001C00DF05C
:1014560002C00EF003C00FF01200000E096E000E5F
:101466000A6E000E0B6E000E0C6E01A008D0055021
:10147600092606500A2207500B2208500C22D89043
:101486000536063607360836D8900432033202325D
:1014960001320150021003100410D8A4E6D709C087
:1014A60001F00AC002F00BC003F00CC004F01200F9
:1014B6000D0EC16EADEC0AF0410E056EEE0EE82E75
:1014C600FED7052EFCD700D094945DC005F0030E20
:1014D60005160538F00BBD120F0EBD125DC005F0E6
:1014E6005EC006F0D89006320532D8900632053234
:1014F6000550BE6E070ECA6E9B0ECB6E030E921281
:10150600FEEC0AF01200940EF66E150EF76E000E43
:10151600F86E00EE60F010EE36F00900F5CFEEFF43
:10152600E550E150FAE1060EF66E160EF76E000E65
:10153600F86E0900F5CF5DF00900F5CF5EF000EE1C
:1015460096F0110EEE6AE806FDE1000EF86E000157
:101556000BEF04F0000E956EF80E9616000E8C6ECC
:10156600F80E8D16410E046EEE0EE82EFED7042EF2
:10157600FCD700D0000E036E380E026EF8EC0AF0AF
:10158600000E036E0C0E026EF8EC0AF0120000005C
:101596000000000000010000010000000101000140
:1015A600000000010001000101000001010101002D
:1015B600000001000001010001000100010101011C
:1015C60000009B008D94210E016E760EE82EFED74C
:1015D600012EFCD700D08D84210E016E760EE82EEA
:1015E600FED7012EFCD700D012008D9002C08CFFD2
:1015F600E5EC0AF01200C280C198C19AC08E1200B2
:021606003801A9
:020000040030CA
:04000000240C1F1E8F
:00000001FF
